:020000040800F2
:1000000068490020C1020008472D00086F2500083C
:10001000452D0008FD1E0008BD400008000000003E
:100020000000000000000000000000004133000854
:100030002521000800000000D131000855340008D7
:10004000DB020008DB020008DB020008DB0200081C
:10005000DB020008DB02000871220008BD22000854
:10006000DB020008DB020008DB020008DB020008FC
:10007000DB020008DB020008DB020008DB020008EC
:10008000DB020008DB020008DB020008DB020008DC
:10009000DB020008DB020008DB020008DB020008CC
:1000A000DB020008DB020008DB020008DB020008BC
:1000B0002F350008393600081D370008DB0200081C
:1000C000DB020008DB020008DB020008DB0200089C
:1000D000DB020008DB020008013E0008DB0200082A
:1000E000DB020008DB020008DB020008DB0200087C
:1000F000DB020008DB020008DB020008DB0200086C
:10010000DB020008DB02000825380008DB020008DB
:10011000DB020008DB020008DB020008DB0200084B
:10012000DB020008DB020008DB020008DB0200083B
:1001300000F002F800F0B4F80AA090E8000C824445
:100140008344AAF10107DA4501D100F0A9F8AFF222
:10015000090EBAE80F0013F0010F18BFFB1A43F0A5
:1001600001031847048300002483000010F8013BBA
:100170000A4413F0030408BF10F8014B1D1108BF17
:1001800010F8015B641E05D010F8016B641E01F8C5
:10019000016BF9D1002D15D010F8014B03F00C03C1
:1001A0000C2BA1EB04040ABF10F8013BA4EB831451
:1001B000A4EB032405F1010314F8016B5B1E01F8A5
:1001C000016BF9D5914238BF10F8013BD1D370478C
:1001D0000023002400250026103A28BF78C1FBD850
:1001E000520728BF30C148BF0B6070476E2900F02E
:1001F0006783702900F0CF86662907F09C84652903
:1002000007F09984672907F096846129AFF300808D
:1002100003681B0A28BF41F08001692900F0C280F1
:10022000642900F0BF80752900F0BC806F2900F0C0
:100230005C86782900F09B86E92900F0F785E4299F
:1002400000F0F485F52900F0F185EF2900F05986DA
:10025000F82900F09A860368DB0928BF41F0800185
:10026000632900F07885732900F07D85E32900F08B
:100270003187F32900F03687002070471FB500F062
:1002800095FE04000020002106F034FE401C606052
:100290000020002106F018FEE0601FBD10B510BD63
:1002A00000F0BAFF1146FFF7E9FF04F0EFFC00F0A1
:1002B000E1FF03B4FFF7F2FF03BC01F025F80000F3
:1002C0000948804709480047FEE7FEE7FEE7FEE7EA
:1002D000FEE7FEE7FEE7FEE7FEE7FEE70448054926
:1002E000054A064B704700005934000831010008E8
:1002F00068430020684900206845002068450020C8
:100300001CB50C46064B7B4469460090204600F025
:1003100000FD04460020694600F00EFD20461CBD8D
:100320002F0A00000FB41CB5084B06AA7B4469468F
:100330000090059800F0EDFC04460020694600F0AE
:10034000FBFC20461CBC5DF814FB0000090A000001
:1003500070B50C460546012A05D02878800600D5E0
:10036000EA69002302E0012305E05B1C934202D20C
:10037000E05C0028F9D1A869E618C01AA861286ACB
:1003800018442862284600F009FA04E0D5E9012162
:1003900014F8010B9047B442F8D3284600F014FA41
:1003A00070BD00002DE9F041064600241068752953
:1003B000314616A510D000F018FA002802DA4042A3
:1003C00013A507E031688A0701D512A502E04907A5
:1003D00004D511A5012401E000F010FA00210A2241
:1003E00006F1240709E0B0FBF2FCB0FBF2F302FBDC
:1003F0001C00303078541846491C0028F3D123469D
:100400002A463046BDE8F04100F001BA0000000085
:100410002D0000002B000000200000002DE9F05FFF
:10042000894604464FF0000ADFF874B1FB44C0F877
:1004300020A02046E1688847002874D0252806D0EF
:10044000D4E901219047206A401C2062F1E7002690
:100450005F462046E16888472028054607DB312DA6
:1004600005D2781910F8200C08B10643F1E7B0075F
:1004700001D526F00406C4F81CA00027C4F818A073
:100480002A2D09D0284604F097FB38B304EB8708DF
:10049000303DC8F8185019E059F8041B204604EB09
:1004A00087029161E1688847012F054618D1E0690C
:1004B000002820DA26F020061DE0D8F8180000EB0E
:1004C000800005EB40003038C8F818002046E1688D
:1004D0008847054604F070FB0028EED1012F0AD0B2
:1004E0002E2D08D12046E16888477F1C0546022F43
:1004F00046F02006C4DBA069002803DA404246F03B
:100500000106A061F00701D026F010066C2D0BD07B
:10051000682D09D04C2D39D06A2D35D0742D35D0A9
:100520007A2D33D016E038E0E1682F462046884720
:10053000B842054609D16C2F26D04FF48060E1689F
:10054000064320468847054604E06C2F1AD04FF436
:10055000807006430DB3A5F14100192802D820355B
:1005600046F400664A462946204626604E46FFF776
:100570003DFE80B101280BD0F61D26F0070000F1EA
:10058000080956E74020E4E78020D8E70020D6E7B6
:1005900006F104094DE7284652E7206ABDE8F09FBE
:1005A000627F000030B505460B462A4613F8014B22
:1005B00012F8010B08B1A042F8D01CB1002802D0FB
:1005C0006D1CF1E7284630BD10B5431C02E010F861
:1005D000011B71B18107FAD14FF0013202C88C1AA8
:1005E0008C4314EAC211F9D0C01A0A0603D0C01E07
:1005F00010BDC01A10BD0A0401D0801E10BD090232
:10060000FCD0401E10BD032A40F2308010F0030CD5
:1006100000F0158011F8013BBCF1020F624498BF55
:1006200011F801CB00F8013B38BF11F8013BA2F1F2
:10063000040298BF00F801CB38BF00F8013B11F06D
:10064000030300F02580083AC0F0088051F8043B0D
:10065000083A51F804CBA0E80810F5E7121D5CBF7A
:1006600051F8043B40F8043BAFF30080D20724BFAD
:1006700011F8013B11F801CB48BF11F8012B24BF41
:1006800000F8013B00F801CB48BF00F8012B704790
:1006900010B5203AC0F00B80B1E81850203AA0E81D
:1006A0001850B1E81850A0E81850BFF4F5AF5FEA51
:1006B000027C24BFB1E81850A0E8185044BF18C904
:1006C00018C0BDE810405FEA827C24BF51F8043BAB
:1006D00040F8043B08BF7047D20728BF31F8023BFF
:1006E00048BF11F8012B28BF20F8023B48BF00F893
:1006F000012B704702F0FF0343EA032242EA024261
:1007000000F002B84FF000020429C0F0128010F08F
:10071000030C00F01B80CCF1040CBCF1020F18BFDD
:1007200000F8012BA8BF20F8022BA1EB0C0100F070
:100730000DB85FEAC17C24BF00F8012B00F8012B43
:1007400048BF00F8012B70474FF0000200B5134678
:1007500094469646203922BFA0E80C50A0E80C50E1
:10076000B1F12001BFF4F7AF090728BFA0E80C5092
:1007700048BF0CC05DF804EB890028BF40F8042B8B
:1007800008BF704748BF20F8022B11F0804F18BFF8
:1007900000F8012B704770477047704770B50446EA
:1007A00085690068C10601D5302600E02026C00713
:1007B00007D070BDD4E9012130469047206A401C23
:1007C00020626D1EF6D570BD70B50446856900784F
:1007D000C00707D170BDD4E9012120209047206ACD
:1007E000401C20626D1EF6D570BD09684A0501D512
:1007F00040B27047C905FCD500B2704709684A0588
:1008000001D5C0B27047C905FCD580B270472DE94B
:10081000F0470D4699469246044600F124080168C7
:10082000880604D5E06921F01001216000E0012074
:10083000A84201DD471B00E00027A1697A1902EBFD
:100840000900081AA0612078C00602D42046FFF7EC
:10085000A5FF002608E0D4E901211AF80600904718
:10086000206A401C761C20624E45F4DB2078C006CE
:100870000AD52046FFF792FF06E0D4E90121302097
:100880009047206A401C2062381EA7F10107F4DC63
:1008900007E0D4E9012118F805009047206A401CC0
:1008A0002062281EA5F10105F3DC2046FFF78CFF2E
:1008B0002078000602D50220BDE8F0870120FBE782
:1008C00011680268006A530501D508700AE0D30573
:1008D00001D5088006E0130603D5C217C1E900025E
:1008E00000E008600120704770472DE9FF4F0C467B
:1008F0001E464FF0FF378BB0D2E90001DDF8608073
:100900000A908A46C1F30A5505B93D4600210846BA
:100910004FF00000BAF1000F00F4400005DA00EBE0
:1009200080004FF4400101EA50004FEA9059B9F1BC
:10093000010F00DDB9460A9850EA4A000ED044F68D
:100940001050A5F2FF3545432F14B8F1000F1ED00B
:100950007542291E1EDDC9F100021CE0B8F1010F2D
:100960004FF0000001D0302103E0F24305E02154B4
:10097000401CB042FBDB30460022002121540B9981
:10098000C1F80880C1E900200FB0BDE8F08FBD1BA1
:100990006D1CDEE74A4600DA694206A800F0A6FBB5
:1009A00006AB93E8070003AB83E8070050460A99BB
:1009B00000F0B1FC8DE80700A0F500501F38009052
:1009C0000398002D0ADD42F21F014A460844002325
:1009D00003A90390684600F01AFF09E0A0F5005053
:1009E0004A461F38002303A90390684600F024FFFD
:1009F0008DE807000004000C03D04FF0FF304108E1
:100A000000E01046B8F1000F03D000220092154616
:100A10001EE0751E05D400F0CDFA303262556D1E11
:100A2000F9D5B3460122084302D000227F1C04E01E
:100A30002078302801D100227F1E002A099784D017
:100A40001DE0112D07DA00F0B5FA303262556D1C49
:100A500050EA0102F5D1084302D00098C8B10EE077
:100A60000021681E05E0235C625C63542254401E32
:100A7000491C8142F7DBAB46A81B401E09900020B1
:100A800004F80B000B98099AC0F80880C0E9002B05
:100A90007AE711264FF0000857E72DE9F04F884616
:100AA0000446D21D22F0070191B0D1E90001CDE941
:100AB0000A0104F06DF802460B98C00F01D02D20FA
:100AC00007E02068810701D52B2002E0202101EA00
:100AD000C000032A099001D0072A05DB03464146DE
:100AE000204600F0ADFA0BE12078800601D5E069E0
:100AF00000E00620B8F1650F814606D0B8F1660F18
:100B000018D0B8F1670F70D131E00020B9F1110FA2
:100B1000009001DB112301E009F101030AAA01A9F8
:100B20000CA8FFF7E2FEDDE90C70002609F10105D3
:100B3000834647E001204B4600904FF000470AAA49
:100B400001A90CA8FFF7D1FEDDE90DB00C995D46B7
:100B5000002610B909F101000D18B9EB050003D406
:100B6000C0F1FF3609F10105A5EB09002BE0B9F151
:100B7000010F01DA4FF001090020B9F1110F0090C7
:100B8000484601DD112300E003460AAA01A90CA88A
:100B9000FFF7ABFEDDE90C704D460026834620785A
:100BA00000070AD4AB4500DA5D4601A8012D04DD3B
:100BB000411911F8011C302907D04F4502DA17F10D
:100BC000040F04DA012082460FE06D1EEEE7002FCD
:100BD00002DCED1B3E4403E0781CA84200DD7D1CD6
:100BE000B81B00F1010A4FF000472078000703D43A
:100BF000AA4501DB4FF0FF3A0021B7F1004F0DF19C
:100C000043088DF8431024D002202B23002F01DA53
:100C10007F422D230A21021EA0F1010000DC5FB1FA
:100C200097FBF1FC97FBF1F201FB1C7C17460CF1E2
:100C3000300C08F801CDEEE7A8F10100037021881F
:100C4000090501D5452100E06521A0F1010800F862
:100C5000011C09980FA9A1EB0807FF1D00B1012095
:100C6000411901EBEA70A1693844081A401EA061DD
:100C70002078C00602D42046FFF790FD099828B1DD
:100C8000D4E901219047206A401C20622078C006E8
:100C900022D52046FFF782FD1EE0002E04DBB3457F
:100CA00002DD01A8805D00E03020D4E901219047F9
:100CB000206A401C2062761CAAF101005FEA000A4B
:100CC0000AD100F073F9C0680168405CD4E90121E1
:100CD0009047206A401C2062281EA5F10105DCDC3B
:100CE00007E0D4E9012118F8010B9047206A401C65
:100CF0002062381EA7F10107F3DC2046FFF764FDF0
:100D0000032011B041E6000001694A1C0261087825
:100D1000704700B58FB0CDE901310021059105493B
:100D20007944CDE9031011466846FFF777FB0FB011
:100D300000BD0000E5FFFFFF0A6802F8010B0A6032
:100D4000704710B5436913B1AFF3008001E0FFF7BE
:100D5000FFFA012010BD127800F124010A70002270
:100D60004A700122EDE711684FF0FF32E9E7000019
:100D70002DE9FF5F15468A460446DFF8AC80F8444B
:100D80000027D8E900103E46CDE9001010E03AF8FF
:100D900016106A4602A800F01BFA411C07D0217801
:100DA000890603D5E269391891420DD80744761CAB
:100DB0002078800602D5E069B84205DDAE42E6DB68
:100DC0003AF816000028E2D1A069C01BA0612046B5
:100DD000FFF7E4FCD8E90010CDE90010002017E08F
:100DE0003AF818106A4602A800F0F2F9B0F1FF3F95
:100DF00081460BD000250DF1080B05E0D4E9012157
:100E00001BF8050090476D1C4D45F7D308F1010014
:100E1000B0428046E4DB206A384420622046FFF777
:100E2000D3FCBDE8FF9F0000227600002DE9F041D1
:100E30008046D21D22F007020025D2E90002F529E2
:100E400015A614D0011E72F1000106DA0023D0EBC2
:100E5000030063EB020211A608E0D8F800108B072C
:100E600001D50FA602E0490701D50EA601251146BE
:100E7000002408F1240704E000F09CF830323A55D1
:100E8000641C50EA0102F7D12B4632462146404607
:100E9000BDE8F041FFF7BBBC000000002D000000E2
:100EA0002B0000002000000030B4002100F12404D9
:100EB00008E002F00705D208303542EA4372DB0849
:100EC0006554491C52EA0305F3D10468002310A2BB
:100ED000250707D5A40600D421B1C46901230DA2BA
:100EE000641EC46130BCFFF792BC10B504462146B5
:100EF0001068FFF783FC02462046BDE8104000233F
:100F0000D2E7D21D22F00701D1E90023CCE700008F
:100F10000000000030000000F0B40D460188090513
:100F200002D5214C7C4402E01F4C7C440E3400214D
:100F300000F1240608E002F00F071209E75D42EA1B
:100F400003721B097754491C52EA0307F3D1027854
:100F50000023120704D5702D06D009B102231134E5
:100F60002246F0BCFFF753BC01231034F8E770B5FC
:100F700004460D4621461068FFF740FC024629460C
:100F80002046BDE870400023C6E7D21D22F00703CB
:100F9000D3E90023C0E70368126843F0200303602D
:100FA0000823C3610023B7E784740000004870473A
:100FB0002843002030B5B0F10A024FEA900E71F1DB
:100FC00000034EEA817EB0EB0E0061EB91014FEA27
:100FD000101E4EEA017E10EB0E0041EB11114FEA9C
:100FE000102E4EEA016E10EB0E0041EB11214FEA7C
:100FF000104E4EEA014E10EB0E0041EB114140182D
:1010000041F100014FEAD00040EA41704FEAD101BE
:1010100010EB80054FEA810444EA907444EB01042C
:101020006D1944EB0404521BA3414FF0000348BF69
:101030000A3200D530BD401C41F1000130BD000036
:101040002DE9F0411F46044603260168072A01F4F2
:10105000006004DB08B116A505E016A503E008B1A1
:1010600015A500E015A521F010002060A069C01EA4
:10107000A0610FB1401EA0612046FFF78FFB4FB16A
:10108000D4E9012138469047206A401C2062C01CE8
:10109000206206E0206AFAE7D4E9012115F8010B85
:1010A0009047761EF8D22046FFF78EFBBDE8F08110
:1010B0004E414E006E616E00494E4600696E6600FC
:1010C00010B5436913B1AFF3008001E0FFF750FEA4
:1010D000012010BD128800F1240182840022C28404
:1010E0000122EDE711684FF0FF32E9E72DE9F04703
:1010F000814616468AB0354878440DC88DE80D0003
:1011000032487844801C03AC0DC884E80D0041F6D9
:101110009B300844372190FBF1F290FBF1F5A5F1EB
:10112000800501FB12041B3C02D56442012000E053
:101130000020DFF898A080460027FA44AAF1BE0AF2
:101140000EE0E0070AD03246684607EB470101236C
:101150000AEB810100F070FB8DE8070064107F1C32
:10116000002CEED1194F7F44AE3F19E0E80715D0AF
:1011700007EB04100DF1180A90E80E008AE80E0043
:10118000C068F04201D1981908903246012306A99F
:1011900003A800F051FB03AB83E807006D10641C4B
:1011A000002DE3D14FF0010332466946B8F1000F3C
:1011B00003A802D000F02BFB01E000F03DFBC9E9E1
:1011C0000001C9F808200AB0BDE8F0875473000098
:1011D00070B516460C46054600F044F8036893F8CF
:1011E0000101012806D0FF2C0FD8185D68B101203D
:1011F0002C7070BDD3F807013246214603F2071365
:1012000003442846BDE8704018474FF0FF3070BDDA
:1012100000487047084300207546FFF7F9FFAE46C7
:1012200005006946534620F00700854618B020B5F2
:10123000FFF754F8BDE820404FF000064FF00007DC
:101240004FF000084FF0000B21F00701AC46ACE86E
:10125000C009ACE8C009ACE8C009ACE8C0098D46DB
:101260007047000010B5FFF7A1FE001D10BD00BFC4
:10127000855C000010B50446AFF300802046BDE851
:101280001040FFF716B800004FF0013C50F8042B57
:1012900051F8043B9A4221D1A2EB0C03934313EA89
:1012A000CC1317D150F8042B51F8043B9A4215D1B6
:1012B000A2EB0C03934313EACC130BD150F8042B8D
:1012C00051F8043B9A4209D1A2EB0C03934313EA71
:1012D000CC13DBD04FF00000704700BFD01A01BA2A
:1012E000B1FA81F101F0180122FA01F0CB40C1F10D
:1012F0002001DBB2C0B2C01A2CFA01F3D11A91431B
:1013000011EAC311E6D1704701491820ABBEFEE7D0
:101310002600020070475FEA400C08BF91F0000F02
:101320004FEA8C234FEAC12243EA51514FEA1C5045
:1013300018BF00F5F0404FEA300018BF41F00041FF
:101340005FEA6C5C00F02980BCF1FF3F08BF40F011
:1013500080407047130C06BF12044FF0100C4FF082
:10136000000C130E04BF12020CF1080C130F04BF83
:1013700012010CF1040C930F04BF92000CF1020C4B
:10138000D30F04BF52000CF1010C11464FF00002C4
:10139000A0F11F00A0EB0C00704711F0004F08BF38
:1013A000704731F000413FF4D5AF0B0C06BF090484
:1013B0004FF0100C4FF0000C0B0E04BF09020CF1A3
:1013C000080C0B0F04BF09010CF1040C8B0F04BFB8
:1013D00089000CF1020CCB0F04BF49000CF1010C89
:1013E000CCF12003A0EB0C0022FA03F302FA0CF27A
:1013F00041EA030100F10100704720F07F4C80EAD0
:10140000030023F07F47ACEB070303F57C5300F0A8
:10141000004003F1FF032DE980494FEA154B09B461
:101420004FEA144325EA0B4E24EA03480FF2042640
:1014300006EB132749083E785FEA320203FB066792
:10144000C7F5000707FB06F64FEA54374FEAD646C2
:1014500006F1020607FB066CCCF1005C4FEA1C4764
:101460002CEA074C07FB06F40CFB06F504EB1546CB
:101470004FEA961634BF00204FF000404FEAD137B4
:1014800006FB07FC4FEA1C4C0CFB0BF7D21B03FBC3
:101490000CF761EB07010CFB0EF7B0EB074072EBAA
:1014A00017420CFB08F734BFA2EB0742B2EB07422E
:1014B00061EB17414FEA0C444FEA910706FB07FC2A
:1014C0004FEA1C4C0CFB0BF7B0EBC74072EB5732EA
:1014D00003FB0CF734BFA2EBC742B2EBC74261EB90
:1014E00057310CFB0EF7B0EBC70072EB57720CFBD9
:1014F00008F734BFA2EBC702B2EBC70261EB57712A
:10150000039F4FEA816141EA921104EBCC044FEA58
:10151000D1374FEA826206FB07FC42EA90124FEA9B
:1015200080604FEA1C4C0CFB0BF7D21B03FB0CF743
:1015300061EB07010CFB0EF7B0EB074072EB1742B3
:101540000CFB08F734BFA2EB0742B2EB074261EB9A
:1015500017414FEA8C554FEA910704EB9C2406FB98
:1015600007FC4FEA1C4C0CFB0BF7B0EBC74072EBCF
:10157000573203FB0CF734BFA2EBC742B2EBC742B2
:1015800061EB57310CFB0EF7B0EBC70072EB5772F3
:101590000CFB08F734BFA2EBC702B2EBC70261EB4A
:1015A000577115EB4C254FEA816141EA92114FEAE0
:1015B00082624FEAD13742EA901206FB07FC44F1FF
:1015C00000044FEA80604FEA1C4C0CFB0BF7D21B67
:1015D00003FB0CF761EB07010CFB0EF7B0EB0740C8
:1015E00072EB17420CFB08F734BFA2EB0742B2EBD9
:1015F000074261EB174115EB1C154FEA813141EAB7
:1016000092414FEA823242EA90424FEA80304FEAFA
:101610000C7644F1000448EA03434EEA0B484FF0CD
:10162000000EB2EB080C71EB030724BF624639468B
:101630004EEB0E0E4FF0000B0018524149414BEBA0
:101640000B0BB2EB080C71EB03077BF1000B24BF13
:10165000624639464EEB0E0E4FF0000B0018524119
:1016600049414BEB0B0BB2EB080C71EB03077BF121
:10167000000B24BF624639464EEB0E0E51EA0207BC
:1016800018BF46F0010616EB0E7655F1000254F134
:10169000000103D5BDE88901BDE80088BDE88901E6
:1016A000BDE80048B619524141EB0101A3F1010325
:1016B000704780807F7E7D7C7B7A797877767675BF
:1016C0007473727171706F6E6E6D6C6C6B6A6A6937
:1016D0006868676666656464636362616160605FD1
:1016E0005F5E5E5D5D5C5C5B5B5A5A59595858574A
:1016F00057565655555554545353525252515150B2
:1017000050504F4F4F4E4E4D4D4D4C4C4C4B4B4B04
:101710004A4A4A494949484848474747474646464A
:101720004545454444444443434343424242424185
:101730004141002B9C4630D477002BD01CB54FEA9A
:10174000370703B44FF010004FF01001BAF1000F4B
:1017500006D0BCF1000FDCBF40F0080040F00801EB
:101760004FF000000FBCBDE810400BF1010BBBF1C6
:10177000010F08BF5FEA170722BF12F1010211F142
:1017800001014FF0004143F1000300F0004043EA43
:1017900000007047F9D35708D0E746EA064613F130
:1017A000400F4FEA16461FDD13F1200FDFBF16432F
:1017B0000A46002120335B42BED0C3F1200746EA2F
:1017C000064602FA07F74FEA164646EA0706C3F14D
:1017D000200722FA03F201FA07F721FA03F14FF08A
:1017E000000342EA0702A7E746EA020646EA06467F
:1017F0004FEA164646EA0106BCBF46EA0646360CE4
:101800004FF000034FF000024FF0000194E72DE984
:10181000804C9A46934670B491E8380007C831EA84
:10182000400C48BF34EA430C03D5FFF7E6FDFFF751
:1018300080FFF0BCBDE8008C2DE9804C9A469346B1
:1018400070B491E8380007C810F0804F08BF13F05B
:10185000804F03D100F005F8FFF76BFFF0BCBDE847
:10186000008C20F07F4780EA030023F07F4C07EBD9
:101870000C03A3F57C5300F00040A3F1FE0392F0AB
:10188000000F00F0B38095F0000F00F077802DE995
:1018900001494FEA11404FEA144621EA004800FB93
:1018A00006FC24EA064708FB06F607FB08F800FBDF
:1018B00007F718EB06484CEB164C4FEA124B18EBA7
:1018C00007484FEA15464CEB174022EA0B4E0BFB3C
:1018D00006FC25EA06470EFB06F607FB0EFE0BFB91
:1018E00007F71EEB064E4CEB164C4FF000061EEBB6
:1018F000074E4CEB174B18EB0B0840F1000018EBB0
:101900000E0B58EB000840F100008F1A4FF0000159
:101910003CBFC943661B14BFB5EB040C00213CBFA0
:10192000C943F61B4FEA17444EEA8E0E27EA0445D8
:101930004FEA1C4704FB07622CEA074C05FB07F73C
:101940000CFB05F604FB0CFC16EB074642EB1742BA
:1019500016EB0C4642EB1C421BEB060658EB020250
:10196000414146EA9E0601D5BDE80189B6195241BA
:1019700041EB0101A3F10103BDE801894FEA1445E0
:101980004FEA114724EA054621EA074C05FB07F414
:1019900006FB07F70CFB06F105FB0CFC11EB0741FE
:1019A00044EB17444FEA124711EB0C4144EB1C4443
:1019B00022EA074C05FB07F206FB07F70CFB06F6CD
:1019C00005FB0CFC16EB074642EB174216EB0C46E8
:1019D00042EB1C456A1854F1000148BF7047B61924
:1019E000524141EB0101A3F10103704795F0000F53
:1019F00037D04FEA11424FEA144721EA024624EA5F
:101A0000074C02FB07F106FB07F70CFB06F402FB91
:101A10000CFC14EB074441EB17414FEA154714EB5C
:101A20000C4441EB1C4125EA074C02FB07F506FB81
:101A300007F70CFB06F602FB0CFC16EB074645EB22
:101A4000174516EB0C4645EB1C42121951F10001EB
:101A500048BF7047B619524141EB0101A3F10103A0
:101A600070474FEA14454FEA114724EA054621EA38
:101A7000074C05FB07F106FB07F70CFB06F24FF0DE
:101A8000000605FB0CFC12EB074241EB174112EB81
:101A90000C4251EB1C4148BF7047921841EB0101C9
:101AA000A3F10103704721B1826842F00102826014
:101AB00003E0826822F001028260704710B504469C
:101AC0001248844208D10121401501F0BFFB0021DA
:101AD000601501F0BBFB17E00D48844208D10121DD
:101AE000001501F0B3FB0021201501F0AFFB0BE066
:101AF0000848844208D10121C80301F0A7FB002156
:101B00004FF4004001F0A2FB10BD00000024014092
:101B100000280140003C0140014600208A6802F094
:101B200004020AB1012000E0002070470146C86CA1
:101B300080B270470246002013680B400BB10120B1
:101B400000E000207047014600208A6802F0080289
:101B50000AB1012000E000207047000030B50246C5
:101B60000020002350680F4C20400D790C6844EA97
:101B700005242043506090680B4C2040D1E902546A
:101B80002C434D7944EA450420439060D06A20F408
:101B900070000C7C641EE4B2234340EA0350D06220
:101BA00030BD0000FFFEF0FFFDF7F1FFF0B5044689
:101BB0000D4600200021092D11DDE068A5F10A067F
:101BC00006EB4607072606FA07F18843A5F10A0641
:101BD00006EB460603FA06F10843E0600CE02069D4
:101BE00005EB4507072606FA07F1884305EB45068E
:101BF00003FA06F108432061072A0FDA606B561ECC
:101C000006EB86071F2606FA07F18843561E06EBE9
:101C1000860605FA06F10843606322E00D2A0FDA12
:101C2000206BD61F06EB86071F2606FA07F18843AE
:101C3000D61F06EB860605FA06F10843206310E07E
:101C4000E06AA2F10D0606EB86071F2606FA07F1E9
:101C50008843A2F10D0606EB860605FA06F1084355
:101C6000E062F0BD816841F008018160704721B1F8
:101C7000826842F4A002826003E0826822F4A0023B
:101C800082607047816841F0040181607047000004
:101C900000B587B001214FF4027001F0C7FA4FF48C
:101CA000004001F097FA0120ADF8040000208DF803
:101CB000070001A9174800F08BFB1748FFF7FEFE4D
:101CC000002002908DF80C008DF80D004FF460207C
:101CD00004900020059001208DF8180002A90E48FC
:101CE000FFF73CFF01210C48FFF7DDFE0A48FFF734
:101CF000B9FF00BF0848FFF726FF0028FAD10648C1
:101D0000FFF7C0FF00BF0448FFF706FF0028FAD125
:101D100007B000BD000C01400024014010B5A2B086
:101D2000802200212E48FEF7E5FC2EA230A12C488F
:101D3000FEF7F8FA2A48FEF747FC37490860802288
:101D400000213648FEF7D6FC35A326A237A133483A
:101D5000FEF7E8FA3148FEF737FC36490860802282
:101D6000002102A8FEF7C6FC2DA01EA31DA232A1D1
:101D7000009002A8FEF7D6FA02A8FEF725FC04465A
:101D8000202036A33E4A2146009002A803F0CAFA5A
:101D90003B48FEF719FC3B490860802200213A4885
:101DA000FEF7A8FC1EA239A13748FEF7BBFA40F2A5
:101DB0005B70404908600846334902683EA003F062
:101DC00029FA074941A003F025FA144943A003F07A
:101DD00021FA2B4945A003F01DFA22B010BD0000E6
:101DE000083F00206B66625F74657374000000003A
:101DF00025737C7365637572656D6F64653D332C07
:101E00007369676E6D6574686F643D686D61637357
:101E10006861317C0000000050000020883F0020F5
:101E20006772637835496F76504D440025732625D7
:101E30007300000054000020636C69656E7449648F
:101E400025736465766963654E616D65257370728F
:101E50006F647563744B6579257300006336626245
:101E600035643835363561636366383566366563A3
:101E700036633031636663663232336200000000DD
:101E800008400020580000208840002025732E695B
:101E90006F742D61732D6D7174742E636E2D736864
:101EA000616E676861692E616C6979756E63732E06
:101EB000636F6D005C000020B7FE20CEF120C6F7F6
:101EC000A3BA25733A25640D0A000000BFCDBBA755
:101ED000B6CB4944A3BA25730D0A0000D3C320BB77
:101EE000A720C3FBA3BA25730D0A0000C3DC202082
:101EF0002020C2EBA3BA25730D0A00007047000032
:101F000070B505460C462246294615480068801CD7
:101F1000FEF779FB2046E11704EB1161090A104A2C
:101F200012681170E11704EB11610912A4EB012191
:101F30000B4A12685170002109480268A01C115414
:101F40000748006800F50070054908600846006809
:101F500004490968884202D103480149086070BDFC
:101F6000440000204C000020082F002010B5002461
:101F70001748006820F4700015490860084600689A
:101F800040F40000086004E0601CC4B2012000F0CE
:101F90004DF91048006808B1642CF5DB642C01DBB6
:101FA000012010BD002404E0601CC4B2012000F038
:101FB0003DF90848006808B9642CF5DB642C04DBA3
:101FC00005A003F027F90120EBE70020E9E7000076
:101FD00000080140140121424448543131B3F5CA8C
:101FE000BCBBAFB4EDCEF30D0A00000008B5012173
:101FF000042001F01BF92020ADF8000010208DF81E
:10200000030003208DF802006946044800F0E0F95F
:1020100000F068F8FFF7AAFF08BD000000080140C3
:1020200010B5002404E0601CC4B2012000F0FEF8EA
:102030000D48006808B1642CF5DB002404E0601C46
:10204000C4B2012000F0F2F80748006808B9642C17
:10205000F5DB282000F0EAF80348006808B1012009
:1020600010BD0020FCE700001401214270B50024DF
:10207000002506E06006040EFFF7D2FF0443681C4B
:10208000C5B2082DF6DB204670BD7CB505460E4670
:1020900000F028F8FFF76AFFF8B9002405E0FFF721
:1020A000E5FF0DF80400601CC4B2052CF7DB9DF8B9
:1020B00000009DF8011008449DF8021008449DF8A6
:1020C000031008449DF80410884208D19DF80000D0
:1020D00030709DF80200287001E001207CBD0020D6
:1020E000FCE7000010B50C48006820F470000A49B5
:1020F00008600846006840F4401008600020074966
:102100000860142000F016F801200549C1F8940178
:102110001E2000F08BF810BD000801409401214200
:1021200000002142704710B56FF0040001F07EF905
:1021300010BD000010B50146B1F5E16F22D201EBF0
:10214000C1034FF47A7463434FF0E02463610023CA
:10215000A36123461B6943F00103236100BF4FF0D5
:10216000E023186900F001031BB100F48033002B59
:10217000F5D04FF0E0231B6923F001034FF0E0247A
:1021800023614FE000221FE0274B4FF0E024636102
:102190000023A36123461B6943F00103236100BFB1
:1021A0004FF0E023186900F001031BB100F4803305
:1021B000002BF5D04FF0E0231B6923F001034FF013
:1021C000E0242361531CDAB24FF4E163B1FBF3F373
:1021D0009342D9D84FF4E163B1FBF3F403FB14133A
:1021E00003EBC3034FF47A7463434FF0E02463615D
:1021F0000023A36123461B6943F00103236100BF51
:102200004FF0E023186900F001031BB100F48033A4
:10221000002BF5D04FF0E0231B6923F001034FF0B2
:10222000E024236110BD00004031F700014601EBBE
:10223000C1024FF0E0235A6100229A611A461269E6
:1022400042F001021A6100BF4FF0E022106900F075
:1022500001021AB100F48032002AF5D04FF0E022DA
:10226000126922F001024FF0E0231A61704700006A
:1022700010B5012000F04EF8C8B10D48006898B9BB
:102280000C48006840B14FF480710B4800F036F9FB
:1022900000200849086007E04FF48071064800F00C
:1022A0002BF9012003490860012000F02DF810BD32
:1022B0000C00002018000020000C014010B5022086
:1022C00000F028F8C8B10D48006898B90C480068BB
:1022D00040B100200A4908604FF40071094800F03D
:1022E0000DF907E04FF40071064800F005F90120F0
:1022F00003490860022000F007F810BD0C00002020
:102300001C000020000C01400149086070470000DB
:1023100014040140014600200022074B1B6803EA19
:102320000102054B14331B680B4013B10AB10120A5
:1023300000E0002070470000000401400021234914
:102340008279002A3AD00A46126803689A430B46FB
:102350001A600A1D126803689A430B1D1A600279FD
:1023600011440A6803681A430A60184A083212685E
:1023700003689A43154B08331A601A1D12680368E4
:102380009A43124B0C331A604279102A0ED11A1F4D
:10239000126803681A430D4B08331A601A1D12683D
:1023A00003681A43094B0C331A600DE00749427960
:1023B00011440A6803681A430A6005E0027911446F
:1023C0000A6803689A430A607047000000040140ED
:1023D0002DE9F041024600250026002000230024BC
:1023E000002791F803C00CF00F0591F803C00CF022
:1023F000100CBCF1000F03D091F802C04CEA0505A7
:1024000091F800C0BCF1000F31D0146800202BE01F
:102410004FF0010C0CFA00F3B1F800C00CEA03060F
:102420009E4220D183004FF00F0C0CFA03F7BC43FF
:1024300005FA03FC4CEA040491F803C0BCF1280F30
:1024400006D14FF0010C0CFA00FCC2F814C00AE0EF
:1024500091F803C0BCF1480F05D14FF0010C0CFA04
:1024600000FCC2F810C0401C0828D1D31460B1F899
:1024700000C0BCF1FF0F34DD546800202EE000F1F5
:10248000080C4FF0010808FA0CF3B1F800C00CEA90
:1024900003069E4221D183004FF00F0C0CFA03F784
:1024A000BC4305FA03FC4CEA040491F803C0BCF1F8
:1024B000280F05D100F1080C08FA0CF8C2F81480B6
:1024C00091F803C0BCF1480F07D100F1080C4FF0A0
:1024D000010808FA0CF8C2F81080401C0828CED376
:1024E0005460BDE8F0810246002093680B400BB1B8
:1024F000012000E000207047416170470161704792
:102500000AB1016100E041617047000010B5044666
:102510000723012221460948FFF748FB012107480C
:10252000FFF7A5FB00BF02210448FFF703FB0028CB
:10253000F9D00248FFF7FAFA10BD0000002401406C
:102540002DE9F04107460C460025002608E03846F4
:10255000FFF7DCFF05440520FFF7ECFD701CC6B259
:10256000A642F4DBB5FBF4F080B2BDE8F081704721
:1025700010B54FF480410948FFF7C0FF4FF4004108
:102580000648FFF7BBFF4FF400410448FFF7B4FFD4
:102590004FF480410148FFF7AFFF10BD000C014030
:1025A00010B54FF480410748FFF7A8FF4FF40041F2
:1025B0000448FFF7A1FF4FF400410248FFF79EFFD8
:1025C00010BD0000000C014010B54FF480410448DC
:1025D000FFF794FF4FF480410148FFF78DFF10BDD6
:1025E000000C01401FB50121042000F01FFE012056
:1025F000ADF80C0048208DF80F0003A92248FFF722
:10260000E7FE0220ADF80C0048208DF80F0003A96A
:102610001D48FFF7DDFE06208DF8080002208DF82A
:10262000090001208DF80A008DF80B0002A800F0C7
:102630008BFB07208DF8080002208DF8090001208F
:102640008DF80A008DF80B0002A800F07DFB012038
:10265000009000208DF804000C208DF8050001206A
:102660008DF806006846FFF769FE02200090002002
:102670008DF804000C208DF8050001208DF806006F
:102680006846FFF75BFE1FBD0008014010B54FF420
:1026900080710848FFF732FF4FF400710548FFF7DB
:1026A0002DFF20210448FFF729FF10210248FFF7E2
:1026B00025FF10BD000C01400010014008B50121AC
:1026C000082000F0B3FD0121102000F0AFFD4FF411
:1026D0004070ADF8000003208DF8020010208DF846
:1026E000030069460248FFF773FEFFF7CFFF08BDFE
:1026F000000C01401348144908600846006813495B
:1027000008601348134908601348144908600846D4
:1027100000681349086013481349086013481449B6
:1027200008600846006813490860134813490860A8
:1027300000201349087013490870134908701349A1
:1027400008707047080F00202C0000203000002087
:10275000081D002034000020081F00203800002041
:102760003C000020082D002040000020082F002001
:102770004400002048000020083D00204C000020BC
:102780006D0000206F0000206E0000206C00002013
:1027900010B52A4800682A490968884240D028486C
:1027A000006826490860084600682649884204D126
:1027B00001F500602149086023E0204801682248B3
:1027C000814204D100F500601C49086019E01B48F3
:1027D00001681E48814204D100F500601749086075
:1027E0000FE016480068A0F500701449086008461C
:1027F0000068A0F50070086008460068A0F5007049
:1028000008600F4804680D4800680D49086000F032
:1028100037F800210EA000F049FA0948046005E0ED
:1028200000F02EF800210AA000F040FA0020114923
:102830000870114908701149087010BD3C00002053
:1028400038000020081F0020082100200823002055
:102850002F6772637835496F76504D442F617070E1
:102860005F746573742F757365722F735F64617421
:10287000610000006F0000206E0000206C0000204E
:1028800070B501207A4908600A207A4908607A48C0
:102890000068001D794909680844801C7849096866
:1028A0000844784908607348006809684418102093
:1028B0007549087000BF2046E11704EB5161C9114A
:1028C000A4EBC115E11704EB5161CC11002C01DD23
:1028D00045F080056C48664A126885546448006873
:1028E000401C63490860002CE5DC0021664A604812
:1028F0000068115404215E480068401C11544D21A9
:102900005B480068801C1154512159480068C01C64
:102910001154542156480068001D11545448006851
:10292000401D1154042152480068801D1154C221D9
:102930004F480068C01D115400214D480068083000
:10294000115464214A480068093011544A49086802
:10295000C11700EB1161C1F307224B4B44490968D1
:102960000A315A5444490868C11700EB1161091231
:10297000A0EB0121CAB23E4909680B315A541A46EC
:102980003B4909680C3150183B490A683F49FDF73B
:102990003AFE3A490868C11700EB1161C1F30722FA
:1029A000334909680C31344B1B681944364B5A546F
:1029B00032490868C11700EB11610912A0EB01212F
:1029C000CAB22B4909680D312B4B1B6819442E4B99
:1029D0005A54274909680E31274A126811441A4689
:1029E000881826490A682A49FDF70DFE2449086817
:1029F000C11700EB1161C1F307221D4909680E31AF
:102A00001D4B1B6819441D4B1B6819441E4B5A541F
:102A10001B490868C11700EB11610912A0EB0121E5
:102A2000CAB2134909680F31134B1B681944134B81
:102A30001B681944144B5A540D49096810310E4A49
:102A4000126811440D4A126811441A4688180C493C
:102A50000A681049FDF7D7FD05480068054A126865
:102A60001044084A12688118074801F097F970BDB0
:102A7000600000206400002050000020540000206E
:102A8000580000206800002008410020083F002076
:102A9000883F0020084000202DE9F04FADF5057D6E
:102AA000804698F8011098F8000001EB002084900F
:102AB00008F10207002081460546064683460124A8
:102AC0004FF0010A00BF0BF1010B00BF281917F8E6
:102AD000009009F07F0000FB0A664FEACA1A641CE6
:102AE00009F080000028F1D130190544311984988B
:102AF000401A84900124A246002684980028E2D13E
:102B0000594621A002F086FB00200546064600BF7C
:102B100000BF809030E000BF281917F8009009F03E
:102B20007F0000FB0A664FEACA1A641C09F08000A5
:102B30000028F1D1601C2844395C6019385C01EB35
:102B40000020801C83908398301A829029198398E2
:102B500008448190819839186846829AFDF753FDA0
:102B600068468299FFF7CCF9301905440124A24642
:102B700000268098401C809080985845CBDB0DF54E
:102B8000057DBDE8F08F0000B1BEB4CEBDD3CAD57F
:102B9000C1CB2564B8F6CDC6CBCDCAFDBEDD0D0ACE
:102BA0000000000010B5C0200449087000204870E3
:102BB0000221024801F0F2F810BD00000841002097
:102BC0002DE9F0470546884616460120334908603E
:102BD0002846FDF7F9FC801C314908603148066041
:102BE000084600682F490968441830202E490870AB
:102BF00000BF2046E11704EB5161C911A4EBC117D6
:102C0000E11704EB5161CC11002C01DD47F0800786
:102C10002548224A1268875420480068401C1F49F2
:102C20000860002CE5DC2846FDF7CEFCC0F3072148
:102C30001D4A1A48006811542846FDF7C5FCC1B268
:102C4000194A16480068401C11542846FDF7BCFC80
:102C50008146154A11490968891C50184A46294677
:102C6000FDF7D1FC2846FDF7AFFC0C490968891C2B
:102C700008440D4900EB0109324641464846FDF73C
:102C8000C2FC06480068064A12681044054A1268E9
:102C90008118054801F082F8BDE8F0876000002047
:102CA00064000020680000200841002070B5044640
:102CB0000D4602201F4908601F4908602046FDF7A5
:102CC00083FCC01C1D49086082201D4908701A48F9
:102CD00000781A490978084419494870002088701A
:102CE0000120C8702046FDF76FFC000A14490871E6
:102CF0002046FDF769FC124948712046FDF764FC47
:102D00000646324621460E48801DFDF77CFC2046D3
:102D1000FDF75AFC801D0A490D5406480068064A12
:102D200012681044054A12688118054801F036F807
:102D300070BD0000600000206400002068000020DA
:102D4000084100207047704770B5002100230F2212
:102D5000C47804B3154C246804F4E064C4F5E0645A
:102D6000210AC1F10403CA40447804FA03F18478CB
:102D70001440214309010E4C0678A155047804F053
:102D80001F050124AC4005786D11AD0005F1E0256B
:102D9000C5F8004109E0047804F01F050124AC40A7
:102DA000044D0678761145F8264070BD0CED00E024
:102DB00000E400E080E100E002490143024A1160C2
:102DC000704700000000FA050CED00E070B500242B
:102DD00018E004F1B000002100F0EEF900210846EF
:102DE00000F0EAF90021102000F0E6F9002505E0E6
:102DF0000121002000F0E0F9681CC5B2802DF7DB4E
:102E0000601CC4B2082CE4DB70BDF8B504460D4666
:102E10001646102003232246022100903C2000F099
:102E200087F9102003232A46042100903C2000F05B
:102E30007FF9102003233246062100903C2000F049
:102E400077F9F8BD10B500221146172000F0EAF816
:102E500001220021292000F0E5F8022200213B2078
:102E600000F0E0F82B2200214D2000F0DBF80022DA
:102E70000221104600F0D6F802221146122000F07E
:102E8000D1F810233A220221262000F0FFF8202258
:102E90000221642000F0C6F801220421002000F085
:102EA000C1F802220421122000F0BCF810233A22BB
:102EB0000421262000F0EAF821220421642000F0F9
:102EC000B1F803220621002000F0ACF8042206210C
:102ED000122000F0A7F810233A220621262000F045
:102EE000D5F810BD08B50121082000F09FF94FF476
:102EF0004040ADF8000010208DF8030003208DF84D
:102F0000020069463C48FFF763FA4FF440413A48F3
:102F1000FFF7F4FA4FF44870FFF70CF90021AE20E8
:102F200000F04AF90021084600F046F9002110207F
:102F300000F042F90021402000F03EF90021B020CD
:102F400000F03AF90021812000F036F90021FF203D
:102F500000F032F90021A12000F02EF90021A62076
:102F600000F02AF90021A82000F026F900213F20D6
:102F700000F022F90021C82000F01EF90021D32022
:102F800000F01AF90021084600F016F90021D520BA
:102F900000F012F90021802000F00EF90021D82065
:102FA00000F00AF90021052000F006F90021D920DF
:102FB00000F002F90021F12000F0FEF80021DA20F3
:102FC00000F0FAF80021122000F0F6F80021DB20D2
:102FD00000F0F2F80021302000F0EEF800218D2002
:102FE00000F0EAF80021142000F0E6F80021AF20FC
:102FF00000F0E2F808BD0000000C014070B5044686
:103000000D4605F1B000002100F0D6F8102141EA8C
:103010001410002100F0D0F804F00F00002100F09F
:10302000CBF870BD2DE9F04180460E4615460027CD
:1030300031464046FFF7E2FF00240AE0124A02EB65
:103040004511085D012100F0B7F8781CC7B2601C7B
:10305000C4B2102CF2DB701CC1B24046FFF7CEFFA9
:1030600000240CE06900491C074A02EB0111085DCD
:10307000012100F0A1F8781CC7B2601CC4B2102C6A
:10308000F0DBBDE8F0810000700000202DE9F04782
:1030900007460E469046994600250024A8F12000D8
:1030A000C5B27F2F02DD0027B01CC6B2B9F1100FE8
:1030B00024D131463846FFF7A1FF002408E004EB95
:1030C0000511194A505C012100F076F8601CC4B269
:1030D000082CF4DB701CC1B23846FFF78FFF0024C8
:1030E00009E004EB051108310F4A505C012100F0A2
:1030F00063F8601CC4B2082CF3DB12E0314638469A
:10310000FFF77CFF00240AE005EB4501074A02EBCC
:103110004101085D012100F04FF8601CC4B2062C8B
:10312000F2DBBDE8F0870000627D00083A7B000812
:103130002DE9FF5F074691461E460E9D4FF0000A9F
:10314000002435E0301B401EC1B20A2002F056F8C0
:10315000B9FBF0F00A21B0FBF1F201FB1208BAF161
:10316000000F14D1701EA04211DDB8F1000F0CD178
:10317000AB4605EBDB71491001FB0471C8B22B466D
:1031800020220199FFF782FF10E04FF0010AAB46C1
:1031900005EBDB71491001FB0471C8B208F1300185
:1031A000CAB22B460199FFF771FF00BF601CC4B281
:1031B000B442C7DBBDE8FF9F70B504460D461DB1A4
:1031C000E0B201F0CFFC02E0E0B201F0B5FC70BD6E
:1031D0007047000001460020034A506820F4404038
:1031E00008435060704700000010024029B1064AB1
:1031F000D2690243044BDA6104E0034AD269824394
:10320000014BDA61704700000010024029B1064A04
:1032100012690243044B1A6104E0034A12698243B3
:10322000014B1A61704700000010024029B1064AA4
:1032300092690243044B9A6104E0034A9269824313
:10324000014B9A61704700000010024029B1064A04
:10325000D2680243044BDA6004E0034AD268824336
:10326000014BDA60704700000010024030B50021C9
:103270000022002400232D4D6D6805F00C0121B1C2
:10328000042905D0082923D105E0294D056022E055
:10329000274D05601FE0254D6D6805F47012234D24
:1032A0006D6805F48034022505EB92421CB9214D6E
:1032B000554305600BE01D4D6D6805F400351DB1EB
:1032C0001C4D5543056002E0194D5543056002E071
:1032D000174D056000BF00BF144D6D6805F0F0018B
:1032E0000909154D6B5C0568DD4045600F4D6D6843
:1032F00005F4E061090A104D6B5C4568DD408560AE
:103300000A4D6D6805F46051C90A0B4D6B5C456848
:10331000DD40C560054D6D6805F44041890B074DE2
:103320006B5CC568B5FBF3F5056130BD001002406C
:1033300000127A0000093D00F00500200006002080
:10334000704710B500F002F810BD00000CB5002069
:10335000019000903348006840F4803031490860A3
:1033600000BF3048006800F4003000900198401C15
:103370000190009818B90198B0F5A06FF1D12948D3
:10338000006800F4003010B10120009001E000203E
:1033900000900098012843D12348006840F01000B5
:1033A000214908600846006820F0030008600846CC
:1033B000006840F0020008601A48406819494860F7
:1033C0000846406848600846406840F480604860AD
:1033D0000846406820F47C1048600846406840F485
:1033E000E81048600846006840F08070086000BF40
:1033F0000C48006800F000700028F9D009484068C7
:1034000020F00300074948600846406840F0020089
:10341000486000BF0348406800F00C000828F9D15C
:103420000CBD00000010024000200240042808D11A
:103430004FF0E021096941F004014FF0E0221161F1
:1034400007E04FF0E021096921F004014FF0E0228C
:10345000116170477047000010B51348006840F0D4
:1034600001001149086008464068104908400E49AB
:103470004860084600680E4908400B490860084645
:10348000006820F4802008600846406820F4FE00B0
:1034900048604FF41F008860FFF753FF4FF0006053
:1034A0000449086010BD0000001002400000FFF851
:1034B000FFFFF6FE08ED00E01FB54FF4A060FFF738
:1034C0007BFC01210846FFF791FE4FF0804000F0A1
:1034D000E5F94EF65F20ADF8080042F6DF60ADF882
:1034E00004000020ADF80600ADF80A0001A94FF075
:1034F000804000F0E3FA0121880700F0BFF90122C3
:103500001146900700F0CFFA0121880700F0B9F9C1
:103510001C208DF8000002208DF8010001208DF89C
:1035200002008DF803006846FFF70EFC1FBD10B5C2
:103530000121880700F0A6FA28B100F011FB012153
:10354000880700F09BF910BD1FB54FF4A060FFF78E
:1035500033FC01210220FFF749FE184800F09EF9D4
:103560004EF65F20ADF8080048F69F40ADF8040025
:103570000020ADF80600ADF80A0001A90F4800F0E0
:103580009DFA01210D4800F079F9012211460B48FE
:1035900000F089FA0121094800F073F91D208DF827
:1035A000000002208DF8010001208DF802008DF846
:1035B00003006846FFF7C8FB1FBD00000004004081
:1035C0001FB54FF4A060FFF7F7FB01210220FFF7C2
:1035D0000DFE184800F062F944F61F60ADF80800CF
:1035E00041F61F40ADF804000020ADF80600ADF82C
:1035F0000A0001A90F4800F061FA01210D4800F00E
:103600003DF9012211460B4800F04DFA012109480D
:1036100000F037F91D208DF8000001208DF8010021
:1036200000208DF8020001208DF803006846FFF7A6
:103630008BFB1FBD0004004010B50121164800F0AF
:1036400021FA38B315480078062819D2DFE800F0CF
:1036500003060B0C0D10FFF7A5FA11E0FFF7B0FF02
:10366000FFF7A0FA0CE000BF00BFFFF79BFA07E0EE
:1036700000200B4908700021074800F002F900BF44
:1036800000BF06480078401C044908700121024828
:1036900000F0F4F810BD0000000400406C000020B1
:1036A0006D0000201FB54FF4A060FFF785FB0121DE
:1036B0000420FFF79BFD184800F0F0F84EF65F205D
:1036C000ADF8080040F65F10ADF804000020ADF83A
:1036D0000600ADF80A0001A90F4800F0EFF901213A
:1036E0000D4800F0CBF8012211460B4800F0DBF941
:1036F0000121094800F0C5F81E208DF800000220C5
:103700008DF8010001208DF802008DF80300684655
:10371000FFF71AFB1FBD00000008004010B5012193
:103720001D4800F0AFF9002834D01C481C4902683D
:103730001C480068801CFCF766FF18480088000AD7
:1037400018490968087015480078164909684870D2
:103750001448006800F500701249086008460068C7
:1037600011490968884202D110480E4908600020BA
:103770000A49086000210E4800F09EF90021064821
:1037800000F07FF80021044800F096F9012102487A
:1037900000F074F810BD0000000800402400002074
:1037A000080700202C00002034000020080F002013
:1037B000000400407FB505460C464FF4A060FFF7BB
:1037C000FBFA01210420FFF711FDADF80850ADF818
:1037D00004400020ADF80600ADF80A0001A9104829
:1037E00000F06CF901210E4800F048F80122114662
:1037F0000B4800F058F90021094800F042F81E205B
:103800008DF8000001208DF8010000208DF80200E5
:1038100001208DF803006846FFF796FA7FBD00008F
:103820000008004010B50121054800F02BF928B12F
:1038300000F096F90121024800F020F810BD0000C8
:10384000000C004008B500210420FFF7CFFC002148
:10385000094800F016F81E208DF8000002208DF8AF
:10386000010001208DF8020000208DF80300684659
:10387000FFF76AFA08BD000000080040CA43028250
:10388000704721B1028842F00102028004E0028800
:103890004FF6FE731A4002807047000010B50446D0
:1038A0006848844208D10121C014FFF7CFFC0021F1
:1038B000E014FFF7CBFCC4E0B4F1804F08D1012144
:1038C0000846FFF7A3FC00210120FFF79FFCB8E0AA
:1038D0005D48844208D101210220FFF797FC0021B6
:1038E0000220FFF793FCACE05848844208D1012144
:1038F0000420FFF78BFC00210420FFF787FCA0E0E9
:103900005348844208D101210820FFF77FFC0021A1
:103910000820FFF77BFC94E04E48844208D1012147
:103920001020FFF773FC00211020FFF76FFC88E0E8
:103930004948844208D101212020FFF767FC00217B
:103940002020FFF763FC7CE04448844208D1012139
:103950004014FFF77BFC00216014FFF777FC70E058
:103960003F48844209D10121C804FFF76FFC0021C0
:103970004FF40020FFF76AFC63E03A48844209D123
:1039800001210805FFF762FC00214FF48010FFF7CA
:103990005DFC56E03448844209D101214805FFF717
:1039A00055FC00214FF40010FFF750FC49E02F4870
:1039B000844208D101214020FFF728FC002140204B
:1039C000FFF724FC3DE02A48844208D101218020F1
:1039D000FFF71CFC00218020FFF718FC31E0254890
:1039E000844208D101218015FFF710FC0021A015A9
:1039F000FFF70CFC25E02048844209D1012108048E
:103A0000FFF724FC00214FF48030FFF71FFC18E083
:103A10001A48844209D101214804FFF717FC00210C
:103A20004FF40030FFF712FC0BE01548844208D138
:103A300001218804FFF70AFC00214FF48020FFF7E2
:103A400005FC10BD002C01400004004000080040AF
:103A5000000C004000100040001400400034014001
:103A6000004C01400050014000540140001800404B
:103A7000001C004000200040004001400044014084
:103A80000048014030B50246002000230024158A7A
:103A900005EA0103958905EA010413B10CB101207F
:103AA00000E0002030BD1AB183890B43838102E01E
:103AB00083898B4383817047818470470022028809
:103AC0001D4B98420ED01D4B98420BD0B0F1804F49
:103AD00008D01B4B984205D01A4B984202D01A4B83
:103AE000984204D14FF68F731A404B881A43174BF4
:103AF000984207D0164B984204D04FF6FF431A4025
:103B0000CB881A4302808B8883850B8803850A4BF8
:103B100098420BD0094B984208D00E4B984205D0E2
:103B20000D4B984202D00D4B984201D10B7A03867F
:103B30000123838270470000002C014000340140C3
:103B40000004004000080040000C0040001000404D
:103B50000014004000400140004401400048014082
:103B60002DE9F043C5B044A943A8FEF78EFA0A2117
:103B70000820FEF7E5FC674908600846006803F086
:103B800059FB06464FF06632634B03F06BFB04466D
:103B90000022624B03F0F6F9804603F0C1F9604958
:103BA000086060495E48006803F052FE5C490860A6
:103BB0000846006803F054FCCDE900019DF810218F
:103BC0009DF80C1158A001F025FB5548006803F042
:103BD00047FCCDE900019DF810319DF80C215CA156
:103BE00003A8FCF79FFB03A8FCF7EEFC0446224663
:103BF00003A95AA0FEF7E4FF4948006803F0A8FDB6
:103C0000C4B222469DF810119DF80C01FFF7FDF893
:103C10005B48006800287AD09DF80C0103F0D0FDC5
:103C2000044658480168204603F0DEFE11D39DF893
:103C3000100103F0C5FD044653480168204603F017
:103C4000D3FE06D3514801683548006803F0CCFE26
:103C50004ED29DF80C0103F0B3FD044649480168BB
:103C6000204603F0C1FE08D24FF480714848FEF7A9
:103C700043FC01204749086007E04FF48071444845
:103C8000FEF73CFC00204349086040480168244896
:103C9000006803F0A9FE08D24FF400713C48FEF71B
:103CA0002BFC01203C49086007E04FF400713848C4
:103CB000FEF724FC0020384908609DF8100103F04D
:103CC0007FFD044630480168204603F08DFE1ED279
:103CD0004FF480712E48FEF70FFC4FF400712C4812
:103CE000FEF70AFC01202B4908602B4908600EE012
:103CF0004FF480712648FEF701FC4FF40071244810
:103D0000FEF7FCFB0020234908602349086045B00A
:103D1000BDE8F0831000002066660A400000B04055
:103D2000140000200000B642CEC2B6C8A3BA256473
:103D30002020CAAAB6C8A3BA25642020D1CCCEEDD3
:103D4000C5A8B6C8A3BA25302E33660D0A000000F8
:103D500025642C25642C25302E3366002F67726372
:103D60007835496F76504D442F6B66625F7465738A
:103D7000742F757365722F705F6461746100000049
:103D80000C0000200000002004000020080000209B
:103D9000000C0140180000201C00002070B50546F2
:103DA0000C462246294613480068801CFCF72BFC71
:103DB0002046E11704EB1161090A0E4A12681170DE
:103DC000E11704EB11610912A4EB0121094A126801
:103DD00051700848006800F5007006490860084600
:103DE000006805490968884202D104480149086011
:103DF00070BD00003800002040000020081F002097
:103E000010B540F22551184800F09CF858B31748F7
:103E1000007880B91448001D008820B31248001DA6
:103E200000881349134A1268885412480068401CDD
:103E30001049086017E00C48001D00880C490D4A25
:103E4000126888540B48006820B901210A48FFF71E
:103E500018FD03E000210848FFF72EFE0548006822
:103E6000401C0449086010BD004400406D00002063
:103E700008070020240000200008004001F4007220
:103E8000B2F5007F00D100BFCA430280704721B164
:103E9000828942F40052828104E082894DF6FF73E8
:103EA0001A4082817047000010B5044620488442C1
:103EB00009D101218803FFF7C9F900214FF480409F
:103EC000FFF7C4F932E01B48844209D101214804BC
:103ED000FFF79CF900214FF40030FFF797F925E038
:103EE0001548844209D101218804FFF78FF9002188
:103EF0004FF48020FFF78AF918E01048844209D176
:103F00000121C804FFF782F900214FF40020FFF7D8
:103F10007DF90BE00A48844208D101210805FFF72A
:103F200075F900214FF48010FFF770F910BD000003
:103F3000003801400044004000480040004C004070
:103F40000050004070B502460024002300250020E8
:103F500040F66A16B14200D100BFC1F3421501F02C
:103F60001F03012606FA03F3012D02D1968933407F
:103F700006E0022D02D1168A334001E0968A3340D2
:103F80000C12012606FA04F41688344013B10CB161
:103F9000012000E0002070BDF0B50346002400269B
:103FA0000025002040F66A17B94200D100BF18462C
:103FB000C1F3421401F01F06012707FA06F5012C90
:103FC00001D10C3004E0022C01D1103000E014309B
:103FD0001AB107682F43076002E00768AF43076024
:103FE000F0BD00002DE9F04786B005460E460024DE
:103FF000A24600BFA1460027B08900B100BF2F46EE
:104000002C8A4CF6FF700440F08804432C82AC8963
:104010004EF6F3100440B088318908437189084393
:104020000443AC81AC8A4FF6FF400440B08904439E
:10403000AC8201A8FFF71AF91F48874202D1DDF8C8
:1040400010A001E0DDF80CA0A88900F4004040B108
:104050000AEBCA0000EB0A1031684900B0FBF1F826
:1040600007E00AEBCA0000EB0A1031688900B0FBD8
:10407000F1F86420B8FBF0F004012009642101FB91
:104080001089A88900F4004040B1322000EBC9003B
:10409000B0FBF1F000F00700044308E0322000EB31
:1040A00009106421B0FBF1F000F00F0004432C81F3
:1040B00006B0BDE8F08700000038014070470000FE
:1040C00010B586B0044601218803FFF7AFF801213F
:1040D0000420FFF7ABF84FF40070ADF81400032094
:1040E0008DF8160018208DF8170005A91248FEF764
:1040F0006FF94FF48060ADF8140004208DF81700BC
:1041000005A90D48FEF764F901940020ADF80800F8
:10411000ADF80A00ADF80C00ADF810000820ADF8BD
:104120000E0001A90548FFF75DFF01210348FFF7D5
:10413000AEFE06B010BD000000080140003801408E
:1041400010B586B004464FF4A060FEF735FE01219D
:104150004804FFF74BF801210420FFF767F82448D3
:10416000FFF7A2FE0420ADF8140003208DF816001E
:1041700018208DF8170005A91E48FEF729F9082018
:10418000ADF8140004208DF8170005A91948FEF7B2
:104190001FF901940020ADF80800ADF80A00ADF851
:1041A0000C00ADF810000C20ADF80E0001A910486D
:1041B000FFF718FF20210E48FFF760FE012240F2B2
:1041C00025510B48FFF7E8FE26208DF8000000205F
:1041D0008DF801008DF8020001208DF8030068467B
:1041E000FEF7B2FD01210248FFF751FE06B010BDF7
:1041F000004400400008014010B564A001F00AF836
:10420000322000F081FB20B164A001F003F801200E
:1042100010BD68A000F0FEFF69A000F0FBFF322196
:104220006CA000F0BFFB20B16DA000F0F3FF0220F6
:10423000EEE772A000F0EEFF7548007800281FD16D
:1042400074A000F0E7FF322177A000F0ABFB20B1B3
:1042500079A000F0DFFF0320DAE77FA000F0DAFFAB
:1042600082A000F0D7FF1E2000F0F8FA20B184A051
:1042700000F0D0FF0420CBE788A000F0CBFF54E093
:1042800002218B48FEF72FF900283FD189A000F0CA
:10429000C1FF32218CA000F085FB20B18EA000F080
:1042A000B9FF0320B4E794A000F0B4FF97A000F09A
:1042B000B1FF32219BA000F075FB20B19DA000F062
:1042C000A9FF0420A4E7A3A000F0A4FFA7A000F08A
:1042D000A1FF3C2000F0A0FB20B1AAA000F09AFFB3
:1042E000052095E7AEA000F095FFB1A000F092FF89
:1042F0003221B5A000F056FB20B1B7A000F08AFF34
:10430000062085E7BCA000F085FF0EE0C0A000F00D
:1043100081FF1E2000F0B6FB20B159A000F07AFF0B
:10432000072075E75DA000F075FFBEA000F072FFEA
:104330003221C0A000F036FB20B1C2A000F06AFF1D
:10434000082065E7C6A000F065FFC9A000F062FF85
:104350003221CCA000F026FB20B1CDA000F05AFF06
:10436000092055E7D2A000F055FFD6A000F052FF7B
:10437000642000F0C9F920B1D7A000F04BFF0A205B
:1043800046E7DCA000F046FF002041E7D7BCB1B80B
:10439000B8B4CEBBC4A3BFE90D0A0000B8B4CEBB0D
:1043A000CAA7B0DCA3ACD7BCB1B8D6D8C6F40D0A46
:1043B00000000000B8B4CEBBB3C9B9A60D0A000016
:1043C000D7BCB1B8C9E8D6C3535441C4A3CABD0DC4
:1043D0000A00000041542B43574D4F44453D3100E6
:1043E000C9E8D6C3535441C4A3CABDCAA7B0DCA30D
:1043F000ACD7BCB1B8D6D8C6F40D0A00C9E8D6C34C
:10440000535441C4A3CABDB3C9B9A60D0A000000E4
:1044100028000020D7BCB1B8C8A1CFFBD7D4B6AF15
:10442000C1ACBDD30D0A000041542B435741555434
:104430004F434F4E4E3D3000C8A1CFFBD7D4B6AF4F
:10444000C1ACBDD3CAA7B0DCA3ACD7BCB1B8D6D879
:10445000C6F40D0A00000000C8A1CFFBD7D4B6AF48
:10446000C1ACBDD3B3C9B9A60D0A0000D7BCB1B861
:10447000C1ACBDD3C2B7D3C9C6F70D0A0000000056
:10448000C1ACBDD3C2B7D3C9C6F7CAA7B0DCA3AC11
:10449000D7BCB1B8D6D8C6F40D0A0000C1ACBDD3A4
:1044A000C2B7D3C9C6F7B3C9B9A60D0A0000000048
:1044B00000080140D7BCB1B8C9E8D6C3D7D4B6AF5D
:1044C000C1ACBDD30D0A000041542B435741555494
:1044D0004F434F4E4E3D3100C9E8D6C3D7D4B6AF97
:1044E000C1ACBDD3CAA7B0DCA3ACD7BCB1B8D6D8D9
:1044F000C6F40D0A00000000C9E8D6C3D7D4B6AF91
:10450000C1ACBDD3B3C9B9A60D0A0000D7BCB1B8C0
:10451000BFAAC6F4536D617274636F6E6669670DEE
:104520000A00000041542B43575354415254534DF9
:1045300041525400BFAAC6F4536D617274636F6E2A
:10454000666967CAA7B0DCA3ACD7BCB1B8D6D8C679
:10455000F40D0A00BFAAC6F4536D617274636F6EE6
:10456000666967B3C9B9A60D0A000000C7EBCAB9EE
:10457000D3C3415050C8EDBCFEB4ABCAE4C3DCC2E7
:10458000EB0D0A00B4ABCAE4C3DCC2EBCAA7B0DCD3
:10459000A3ACD7BCB1B8D6D8C6F40D0A0000000051
:1045A000B4ABCAE4C3DCC2EBB3C9B9A60D0A0000C0
:1045B000D7BCB1B8B9D8B1D5536D617274636F6EA1
:1045C0006669670D0A00000041542B435753544F4E
:1045D00050534D4152540000B9D8B1D5536D61725A
:1045E00074636F6E666967CAA7B0DCA3ACD7BCB151
:1045F000B8D6D8C6F40D0A00B9D8B1D5536D6172DA
:1046000074636F6E666967B3C9B9A60D0A000000CE
:10461000B5C8B4FDC1ACBDD3C2B7D3C9C6F70D0A86
:1046200000000000D7BCB1B8C9E8D6C3CDB8B4AB60
:104630000D0A000041542B4349504D4F44453D3134
:1046400000000000C9E8D6C3CDB8B4ABCAA7B0DC3F
:10465000A3ACD7BCB1B8D6D8C6F40D0A0000000090
:10466000C9E8D6C3CDB8B4ABB3C9B9A60D0A00002A
:10467000D7BCB1B8B9D8B1D5B6E0C2B7C1ACBDD31B
:104680000D0A000041542B4349504D55583D300010
:10469000B9D8B1D5B6E0C2B7C1ACBDD3CAA7B0DCFA
:1046A000A3ACD7BCB1B8D6D8C6F40D0A0000000040
:1046B000B9D8B1D5B6E0C2B7C1ACBDD3B3C9B9A6FC
:1046C0000D0A0000D7BCB1B8C1ACBDD3B7FECEF166
:1046D000C6F70D0A00000000C1ACBDD3B7FECEF195
:1046E000C6F7CAA7B0DCA3ACD7BCB1B8D6D8C6F45D
:1046F0000D0A0000C1ACBDD3B7FECEF1C6F7B3C9F9
:10470000B9A60D0A0000000010B5044600202E498D
:1047100008604FF480612D48FBF7F4FF2C482D49C9
:1047200002682DA000F0C4FD1AE06420FDF702FD30
:1047300030A12648FBF736FF00B115E02FA1234832
:10474000FBF730FF08B1012010BD2EA11F48FBF779
:1047500029FF08B10220F7E721462FA000F05AFDFB
:10476000201EA4F10104E0D100BF2CA000F052FDF6
:10477000002C01DC0320E7E729A000F04BFD00201E
:10478000114908604FF480611048FBF7BBFF2CA073
:1047900000F08EFD0CE06420FDF7CCFC2CA10B4852
:1047A000FBF700FF00B107E021461BA000F032FD3F
:1047B000201EA4F10104EED100BF002C01DC042076
:1047C000C2E70020C0E70000240000200807002006
:1047D0005C0000208840002041542B434950535432
:1047E0004152543D22544350222C222573222C2521
:1047F000640D0A00434F4E4E45435400434C4F5303
:1048000045440000414C524541445920434F4E4ECF
:104810004543544544000000256420000D0A000073
:10482000C1ACBDD3B7FECEF1C6F7B3C9B9A6A3AC30
:10483000D7BCB1B8BDF8C8EBCDB8B4AB0D0A000019
:1048400041542B43495053454E440D0A000000008B
:104850000D0A4F4B0D0A0D0A3E00000010B504462C
:104860000020144908604FF480611348FBF74AFFA9
:1048700012A215A117A000F01BFD0DE04FF47A70F5
:10488000FDF758FC19A10C48FBF78CFE00B107E0BE
:1048900021461BA000F0BEFC201EA4F10104EDD1B6
:1048A00000BF18A000F0B6FC002C01DC012010BDF8
:1048B0000020FCE7240000200807002031353937AC
:1048C00034343034333138005869616F6D695F3288
:1048D0003231460041542B43574A41503D22257303
:1048E000222C222573220D0A000000005749464958
:1048F00020474F542049500D0A0D0A4F4B0000002D
:10490000256420000D0A000010B504460022102185
:104910001148FDF7F5FD4FF4FA70FDF70BFC01228D
:1049200010210D48FDF7ECFD0CE06420FDF702FCC2
:104930000AA10C48FBF736FE00B107E021460AA0A9
:1049400000F068FC201EA4F10104EED100BF07A016
:1049500000F060FC002010BD000801407265616439
:104960007900000008070020256420000D0A0000DF
:1049700008B501210420FEF759FC1020ADF8000015
:1049800003208DF8020010208DF8030069460448CA
:10499000FDF71EFD012210210148FDF7B1FD08BD04
:1049A0000008014070B505460C4600201349086018
:1049B0004FF480611248FBF7A5FE294611A000F0D4
:1049C00077FC0CE06420FDF7B5FB10A10C48FBF769
:1049D000E9FD00B107E021460DA000F01BFC201E00
:1049E000A4F10104EED100BF0AA000F013FC002CDA
:1049F00001DC012070BD0020FCE700002400002045
:104A00000807002025730D0A000000004F4B00002E
:104A1000256420000D0A000010B50446002012494C
:104A200008604FF480611148FBF76CFE0DE04FF415
:104A30007A70FDF77FFB0EA10C48FBF7B3FD00B1C8
:104A400007E021460DA000F0E5FB201EA4F10104C3
:104A5000EDD100BF0AA000F0DDFB002C01DC01203D
:104A600010BD0020FCE70000240000200807002003
:104A7000636F6E6E656374656400000025642000DA
:104A80000D0A000010B504460DE04FF47A70FDF7F2
:104A900051FB0CA10E48FBF785FD00B107E0214654
:104AA0000CA000F0B7FB201EA4F10104EDD100BF63
:104AB00009A000F0AFFB002C01DC012010BD00209C
:104AC000FCE700005749464920474F542049500011
:104AD00008070020256420000D0A00002DE9F041A0
:104AE00005462C464FF480411248FDF705FD00268F
:104AF0001CE0274607F08007802F04D139020D48BB
:104B0000FDF7FCFC04E04FF400410A48FDF7F4FC1B
:104B10006006040E4FF480410648FDF7EFFC4FF4A9
:104B200080410448FDF7E8FC701CC6B2082EE0DBAB
:104B3000BDE8F081000C014010B50446FDF718FDFA
:104B40007820FFF7CBFFFDF73FFD0020FFF7C6FF02
:104B5000FDF73AFD2046FFF7C1FFFDF735FDFDF7F4
:104B60001FFD10BD10B50446FDF702FD7820FFF7CC
:104B7000B5FFFDF729FD4020FFF7B0FFFDF724FD4D
:104B80002046FFF7ABFFFDF71FFDFDF709FD10BD48
:104B9000490050EAC12018BF04204A0D18BF40F058
:104BA000010040F2FF72B2EB515F08BF40F002001B
:104BB000012808BF0520704730380A2801D201209B
:104BC00070470020704700002DE9F84F04460E465C
:104BD0004FF0000BD94600200090824600250AE0E5
:104BE00000E0641C207810B120782C28F9D12078BE
:104BF00000B1641C6D1CB542F2DB39E020782E2830
:104C000002D101200090641C009800B30AF1010A4F
:104C10002178A1F1300002F0BBFD8146002505E0BE
:104C20001749484602F0B6FC81466D1C5545F7DB36
:104C3000484602F015FC07463A460B4611A000F024
:104C4000E9FA4946584602F037FC83460FE02178DE
:104C5000A1F1300002F09CFD07460949584602F0D8
:104C6000F7FD8046394602F027FC834600BF641CEE
:104C7000207810B120782C28C0D15846BDE8F88F94
:104C80000000204125302E32660D0A001FB500BFFE
:104C9000FDF749FA4FF41650FFF712FA4FF4E130DE
:104CA000FFF74EFA4FF4E1514FF49670FEF782FD94
:104CB000FEF718F9FEF78AF8FDF700FDFDF792FC04
:104CC000FDF794F9FCF7E4FF0A210020FDF738FC1A
:104CD000B0F5FA7F06DDC0A000F09CFA4FF4C87072
:104CE000FDF728FAFFF744FEFDF704FDFDF716F87F
:104CF000FEF7A8F86EE1BD480078012872D1BC48E3
:104D00000068BC49096888422AD0B94800688078A0
:104D100010280CD0B64800688078822803D1B648A5
:104D20000078012803D0B5480078012818D1B04890
:104D300000688178B2A000F06DFAAD48006800F01C
:104D400097FAAB48006800F50070A949086008466A
:104D50000068AF490968884202D1AE48A44908609A
:104D6000AD480068AD490968884275D0ACA000F034
:104D700051FAA9480068807820283CD1A6480068EC
:104D8000407906282FD2DFE800F0030A11181F2609
:104D9000A6A000F03FFA0120974908702AE0A8A0D9
:104DA00000F038FA00209149087023E0AFA000F02D
:104DB00031FA00208D4908701CE0B8A000F02AFAF2
:104DC00000208A49087015E0BEA000F023FA0020F8
:104DD000864908700EE0C6A000F01CFA0020834946
:104DE000087007E0D0E0CAA000F014FA00207F4964
:104DF000087000BF57E088480068807890282CD160
:104E000085480068807910B1012814D100E000BF06
:104E1000C8A000F0FFF90120784908700020C849B7
:104E20000870FEF791FBFEF747FBC6A000F0F2F911
:104E3000FEF796FE0FE0BFA000F0ECF901206F49ED
:104E400008700020BE490870FEF736FBFEF77CFBB9
:104E5000FEF786FE00BF26E034E06F4800688078E9
:104E6000D02814D1B9A000F0D5F9B54800780128B0
:104E700003D10020B249087015E0B148007801283C
:104E800011DD0020AE490870FEF75EFB0BE06248C2
:104E900000688078302806D1B0A000F0BBF95E48E9
:104EA0000068FDF7F9FD5C48006800F500705A499C
:104EB000086008460068AE490968884202D1AD48DA
:104EC00055490860AC480068AC49096888425AD026
:104ED000A9480168891CAAA000F09CF90021A648F5
:104EE0000068801CFFF770FE044602F015FCA7491D
:104EF000086008460068A0B301219F480068801C34
:104F0000FFF762FEA249086002219B480068801CEE
:104F1000FFF75AFE9F490860032197480068801CEC
:104F2000FFF752FE9C4908600846006802F098FAB4
:104F300004460D469748006802F092FA06460F466E
:104F40009348006802F08CFA804642460B4693A0D4
:104F5000CDE90067CDE9024500F05CF9FEF7A2FB60
:104F600002E0FFE7FEF76EFC8348006800F5007082
:104F7000814908600846006890490968884229D13B
:104F80008F487D49086025E08EA000F043F900219C
:104F90009148FEF776FC00219048FEF772FC002055
:104FA0008F4908604FF480618E48FBF7ABFBFFF739
:104FB00023F978B98CA000F02DF901200B49087075
:104FC0000020874908604FF480618648FBF79AFB10
:104FD000FDF7DEFB8FE600004D512D313335B3F583
:104FE000CABCBBAFB4EDCEF30D0A00006D000020CB
:104FF0003C000020380000206E0000206F000020E0
:10500000B7A2CBCDCAFDBEDD3A307825780D0A00B7
:1050100040000020081F0020300000202C0000204D
:10502000BDD3CAD5B5BDCAFDBEDD3A00434F4E4E15
:10503000454354B1A8CEC4B3C9B9A60D0A000000B7
:10504000C1ACBDD3D2D1BEDCBEF8A3ACB2BBD6A737
:10505000B3D6B5C4D0ADD2E9B0E6B1BEA3ACD7BC2F
:10506000B1B8D6D8C6F40D0A00000000C1ACBDD35B
:10507000D2D1BEDCBEF8A3ACB2BBBACFB8F1B5C4D6
:10508000BFCDBBA7B6CBB1EACAB6B7FBA3ACD7BC02
:10509000B1B8D6D8C6F40D0A00000000C1ACBDD32B
:1050A000D2D1BEDCBEF8A3ACB7FECEF1B6CBB2BB5C
:1050B000BFC9D3C3A3ACD7BCB1B8D6D8C6F40D0A08
:1050C00000000000C1ACBDD3D2D1BEDCBEF8A3ACA1
:1050D000CEDED0A7B5C4D3C3BBA7C3FBBBF2C3DC32
:1050E000C2EBA3ACD7BCB1B8D6D8C6F40D0A000049
:1050F000C1ACBDD3D2D1BEDCBEF8A3ACCEB4CADA4B
:10510000C8A8A3ACD7BCB1B8D6D8C6F40D0A000065
:10511000C1ACBDD3D2D1BEDCBEF8A3ACCEB4D6AA4E
:10512000D7B4CCACA3ACD7BCB1B8D6D8C6F40D0AB2
:1051300000000000B6A9D4C4B3C9B9A60D0A000086
:105140006C000020313131310D0A000050494E47CA
:10515000B1A8CEC4BBD8B8B40D0A0000B7FECEF1DA
:10516000C6F7B5C8BCB630CDC6CBCD0D0A00000021
:1051700034000020080F00204800002044000020D8
:10518000C3FCC1EE3A25730D0A0000000C0000209C
:1051900000000020040000200800002074656D3D20
:1051A00025302E32662C6875693D25302E32662CEE
:1051B000736D6F3D25302E32660D0A004C000020C5
:1051C000082F0020D0E8D2AAC1ACBDD3B7FECEF1E3
:1051D000C6F70D0A0000000000080040000400406F
:1051E0002400002008070020BDA8C1A2544350C1DC
:1051F000ACBDD3B3C9B9A60D0A00000010B5024674
:10520000012000E050430B1EA1F10104E1B2F9D1ED
:1052100010BD00000FB438B505A800901248009AE0
:105220000499FBF76DF8002000900F48FBF7CCF9CC
:10523000054600BF0D48008800F040000028F9D066
:1052400000240CE00848005D0849091D088000BFE3
:105250000648008800F040000028F9D0641CAC42E9
:10526000F0D338BC5DF814FB08060020003801407C
:1052700000BF0E4A128802F04002002AF9D0012134
:105280000CE04A1C825C094B1B1D1A8000BF074AB8
:10529000128802F04002002AF9D0491C43780278B3
:1052A00003EB02228A42ECDA70470000004400401F
:1052B0000FB438B505A800901248009A0499FBF77E
:1052C0001FF8002000900F48FBF77EF9054600BF4D
:1052D0000D48008800F040000028F9D000240CE0C0
:1052E0000848005D0849091D088000BF064800887D
:1052F00000F040000028F9D0641CAC42F0D338BC68
:105300005DF814FB080B002000440040014601F04A
:105310000F010A2902DA01F1300001E001F1570022
:1053200040B270472DE9F043BDB0064688461546A9
:105330001F46DDF810910EB105B117B93DB0BDE8BB
:10534000F083B9F1400F00DDF8E7402116A8FBF724
:10535000FBF9402106A8FBF7F7F94A46394616A89B
:10536000FBF751F94A46394606A8FBF74CF90024E9
:105370000CE016A8005D80F0360016A9085506A8B6
:10538000005D80F05C0006A90855641C402CF0DB31
:1053900026A800F0AFF826A801F042FD402216A989
:1053A00026A801F053FD4246314626A801F04EFDE5
:1053B00001A926A800F02AF826A800F09BF826A844
:1053C00001F02EFD402206A926A801F03FFD14227F
:1053D00001A926A801F03AFD01A926A800F016F8B7
:1053E00000240FE001A9095D0811FFF78FFF05F800
:1053F000140001A9085DFFF789FF012101EB4401B9
:105400006854641C142CEDDB00BF97E72DE9FC47C2
:1054100004460D462068400F616840EAC1062068D6
:10542000C700300E8DF80000300C8DF80100300AF6
:105430008DF80200F0B28DF80300380E8DF80400EC
:10544000380C8DF80500380A8DF80600F8B28DF892
:105450000700207800F03F08B8F1380F02D2C8F1F9
:10546000380001E0C8F1780081464A4620492046CC
:1054700001F0ECFC08226946204601F0E7FCA06838
:10548000000E2870A068000C68702089000AA870BF
:10549000207AE870E068000E2871E068000C6871FE
:1054A000A089000AA871207BE8712069000E28728B
:1054B0002069000C6872208A000AA872207CE872B9
:1054C0006069000E28736069000C6873A08A000A86
:1054D000A873207DE873A069000E2874A069000CF1
:1054E0006874208B000AA874207EE874BDE8FC87ED
:1054F0005283000810B504465C212046FBF724F9CE
:1055000010BD00002DE9F04390B007460E4696F816
:1055100000C04FEA0C6C96F801804CEA084C96F8F3
:1055200002804CEA082C96F803804CEA080CCDF86F
:1055300000C096F804C04FEA0C6C96F805804CEA5F
:10554000084C96F806804CEA082C96F807804CEA3E
:10555000080CCDF804C096F808C04FEA0C6C96F819
:1055600009804CEA084C96F80A804CEA082C96F818
:105570000B804CEA080CCDF808C096F80CC04FEA36
:105580000C6C96F80D804CEA084C96F80E804CEAAC
:10559000082C96F80F804CEA080CCDF80CC096F851
:1055A00010C04FEA0C6C96F811804CEA084C96F843
:1055B00012804CEA082C96F813804CEA080CCDF8BF
:1055C00010C096F814C04FEA0C6C96F815804CEA9F
:1055D000084C96F816804CEA082C96F817804CEA8E
:1055E000080CCDF814C096F818C04FEA0C6C96F869
:1055F00019804CEA084C96F81A804CEA082C96F868
:105600001B804CEA080CCDF818C096F81CC04FEA75
:105610000C6C96F81D804CEA084C96F81E804CEAFB
:10562000082C96F81F804CEA080CCDF81CC096F8A0
:1056300020C04FEA0C6C96F821804CEA084C96F892
:1056400022804CEA082C96F823804CEA080CCDF80E
:1056500020C096F824C04FEA0C6C96F825804CEADE
:10566000084C96F826804CEA082C96F827804CEADD
:10567000080CCDF824C096F828C04FEA0C6C96F8B8
:1056800029804CEA084C96F82A804CEA082C96F8B7
:105690002B804CEA080CCDF828C096F82CC04FEAB5
:1056A0000C6C96F82D804CEA084C96F82E804CEA4B
:1056B000082C96F82F804CEA080CCDF82CC096F8F0
:1056C00030C04FEA0C6C96F831804CEA084C96F8E2
:1056D00032804CEA082C96F833804CEA080CCDF85E
:1056E00030C096F834C04FEA0C6C96F835804CEA1E
:1056F000084C96F836804CEA082C96F837804CEA2D
:10570000080CCDF834C096F838C04FEA0C6C96F807
:1057100039804CEA084C96F83A804CEA082C96F806
:105720003B804CEA080CCDF838C096F83CC04FEAF4
:105730000C6C96F83D804CEA084C96F83E804CEA9A
:10574000082C96F83F804CEA080CCDF83CC0B868AD
:10575000F9683A697B69BC694FEA401C4CEAD06839
:1057600082EA030C0CEA010C8CEA030CC444DFF857
:10577000F88FC444DDF80080C44464444FEA817C5F
:105780004CEA91014FEA441C4CEAD46881EA020CCD
:105790000CEA000C8CEA020CC444DFF8CC8FC44441
:1057A000DDF80480C44463444FEA807C4CEA9000F6
:1057B0004FEA431C4CEAD36880EA010C0CEA040C63
:1057C0008CEA010CC444DFF8A08FC444DDF80880E3
:1057D000C44462444FEA847C4CEA94044FEA421C7D
:1057E0004CEAD26884EA000C0CEA030C8CEA000C48
:1057F000C444DFF8748FC444DDF80C80C4446144B1
:105800004FEA837C4CEA93034FEA411C4CEAD1688F
:1058100083EA040C0CEA020C8CEA040CC444DFF8A2
:10582000488FC444DDF81080C44460444FEA827C51
:105830004CEA92024FEA401C4CEAD06882EA030C20
:105840000CEA010C8CEA030CC444DFF81C8FC4443E
:10585000DDF81480C44464444FEA817C4CEA910131
:105860004FEA441C4CEAD46881EA020C0CEA000CB2
:105870008CEA020CC444DFF8F08EC444DDF81880D2
:10588000C44463444FEA807C4CEA90004FEA431CD6
:105890004CEAD36880EA010C0CEA040C8CEA010C97
:1058A000C444DFF8C48EC444DDF81C80C4446244A0
:1058B0004FEA847C4CEA94044FEA421C4CEAD268DA
:1058C00084EA000C0CEA030C8CEA000CC444DFF8F8
:1058D000988EC444DDF82080C44461444FEA837C40
:1058E0004CEA93034FEA411C4CEAD16883EA040C6A
:1058F0000CEA020C8CEA040CC444DFF86C8EC4443D
:10590000DDF82480C44460444FEA827C4CEA920271
:105910004FEA401C4CEAD06882EA030C0CEA010C06
:105920008CEA030CC444DFF8408EC444DDF82880C0
:10593000C44464444FEA817C4CEA91014FEA441C20
:105940004CEAD46881EA020C0CEA000C8CEA020CE6
:10595000C444DFF8148EC444DDF82C80C44463448E
:105960004FEA807C4CEA90004FEA431C4CEAD36833
:1059700080EA010C0CEA040C8CEA010CC444DFF848
:10598000E88DC444DDF83080C44462444FEA847C2E
:105990004CEA94044FEA421C4CEAD26884EA000CB8
:1059A0000CEA030C8CEA000CC444DFF8BC8DC44440
:1059B000DDF83480C44461444FEA837C4CEA9303AD
:1059C0004FEA411C4CEAD16883EA040C0CEA020C51
:1059D0008CEA040CC444DFF8908DC444DDF83880B0
:1059E000C44460444FEA827C4CEA92024FEA401C75
:1059F0004CEAD06882EA030C0CEA010C8CEA030C36
:105A0000C444DFF8648DC444DDF83C80C44464447D
:105A10004FEA817C4CEA9101DDF834C0DDF820804A
:105A20008CEA080CDDF808808CEA080CDDF80080B0
:105A30008CEA08054FEA450C4CEAD5784FEA441C3D
:105A40004CEAD46981EA020C0CEA000C8CEA020CE4
:105A5000CC44DFF8149DCC44C4446344CDF80080AA
:105A60004FEA807C4CEA9000DDF838C0DDF82480F5
:105A70008CEA080CDDF80C808CEA080CDDF8048058
:105A80008CEA08054FEA450C4CEAD5784FEA431CEE
:105A90004CEAD36980EA010C0CEA040C8CEA010C94
:105AA000CC44DFF8C49CCC44C4446244CDF80480A8
:105AB0004FEA847C4CEA9404DDF83CC0DDF8288091
:105AC0008CEA080CDDF810808CEA080CDDF8088000
:105AD0008CEA08054FEA450C4CEAD5784FEA421C9F
